:100000000C942A000C943F000C943F000C943F0089
:100010000C943F000C943F000C943F000C943F0064
:100020000C943F000C943F000C943F000C943F0054
:100030000C943F000C943F000C943F000C943F0044
:100040000C943F000C943F000C943F000C943F0034
:100050000C943F0011241FBECFE5D8E0DEBFCDBF1A
:1000600011E0A0E6B0E0E0E0FAE402C005900D92F5
:10007000A032B107D9F70E9465150C94FE240C94A8
:100080000000EF92FF920F931F937B018C0120E001
:1000900030E040E05FE40E94410388238CF0C80117
:1000A000B70120E030E040E05FE40E94B9010E9427
:1000B000A1039B01AC01205030404040504806C095
:1000C000C801B7010E94A1039B01AC01B901CA019B
:1000D0001F910F91FF90EF900895A0E0B0E0E3E74B
:1000E000F0E00C94C724DC012B01FA019C919230C2
:1000F00008F439C1EB018881823008F433C19430AF
:1001000069F4843009F02FC111969C91119789816F
:10011000981709F428C1A0E1B1E025C1843009F4A1
:1001200021C18230A9F4923009F01DC19A01AD01BC
:1001300088E0EA010990AE01E90109929E0181502F
:10014000C1F7E201898111969C918923818308C1BD
:10015000923009F407C112962D903C901397EB0151
:100160008A819B811496AD90BD90CD90DC901797BD
:10017000EC80FD800E811F819101281B390BB90194
:1001800037FF04C066277727621B730B6032710547
:100190000CF061C0121613066CF537014801062EEB
:1001A00004C096948794779467940A94D2F721E0D8
:1001B00030E040E050E004C0220F331F441F551FC1
:1001C0006A95D2F721503040404050402E213F21C7
:1001D00040235123211531054105510521F021E02E
:1001E00030E040E050E079018A01E628F72808294C
:1001F00019293CC0232BD1F1260E371E35014601AB
:10020000062E04C096948794779467940A94D2F744
:1002100021E030E040E050E004C0220F331F441FD3
:10022000551F6A95D2F721503040404050402A2156
:100230003B214C215D21211531054105510521F05E
:1002400021E030E040E050E059016A01A628B728DB
:10025000C828D9280BC0821593052CF01C01AA24AC
:10026000BB24650103C0EE24FF24870111969C91F5
:10027000D20111968C91981709F445C0992339F051
:10028000A80197012A193B094C095D0906C0A6017E
:1002900095012E193F09400B510B57FD08C01182E3
:1002A0003382228224833583468357831DC081E0B5
:1002B00081833382228288279927DC01821B930B5A
:1002C000A40BB50B84839583A683B7830DC0220F3F
:1002D000331F441F551F24833583468357838281F0
:1002E000938101979383828324813581468157814D
:1002F000DA01C9010197A109B1098F5F9F4FAF4F83
:10030000BF4328F30BC0918333822282EA0CFB1C8B
:100310000C1D1D1DE482F5820683178383E0808314
:10032000248135814681578157FF1AC0C901AA2708
:1003300097FDA095BA2F81709070A070B0705695FF
:10034000479537952795822B932BA42BB52B848328
:100350009583A683B7838281938101969383828359
:10036000DF0101C0D201CD01CDB7DEB7E2E10C94CF
:10037000E324A0E2B0E0EFEBF1E00C94D324698336
:100380007A838B839C832D833E834F835887E9E058
:10039000EE2EF12CEC0EFD1ECE010196B7010E944F
:1003A000CA048E010F5E1F4FCE010596B8010E9450
:1003B000CA048A8991E089278A8BC701B801AE01F6
:1003C000475E5F4F0E946D000E94F503A096E6E035
:1003D0000C94EF24A0E2B0E0E0EFF1E00C94D32421
:1003E00069837A838B839C832D833E834F835887D5
:1003F000F9E0EF2EF12CEC0EFD1ECE010196B701B7
:100400000E94CA048E010F5E1F4FCE010596B801EF
:100410000E94CA04C701B801AE01475E5F4F0E9447
:100420006D000E94F503A096E6E00C94EF24A0E294
:10043000B0E0EDE1F2E00C94C72469837A838B830A
:100440009C832D833E834F835887CE010196BE0146
:10045000675F7F4F0E94CA04CE010596BE016F5EA2
:100460007F4F0E94CA049985923088F08989823032
:10047000C8F0943019F4823051F404C0843029F467
:10048000923081F480E191E0C6C0923049F420E0DE
:100490009A858A89981321E02A87CE010996BBC0E4
:1004A000823049F420E09A858A89981321E02A8BCA
:1004B000CE014196B0C02D843E844F8458886D880B
:1004C0007E888F88988CEE24FF248701AA24BB2481
:1004D000650140E050E060E070E0E0E0F0E0C10184
:1004E00081709070892BE9F0E60CF71C081D191D2E
:1004F0009A01AB012A0D3B1D4C1D5D1D80E090E073
:10050000A0E0B0E0E614F7040805190520F481E046
:1005100090E0A0E0B0E0BA01A901480F591F6A1F9E
:100520007B1FAA0CBB1CCC1CDD1C97FE08C081E005
:1005300090E0A0E0B0E0A82AB92ACA2ADB2A3196C6
:10054000E032F10549F0660C771C881C991C569422
:10055000479437942794C3CFFA85EA892B893C893D
:100560008B859C85280F391F2E5F3F4F17C0CA010E
:1005700081709070892B61F016950795F794E79438
:1005800080E090E0A0E0B0E8E82AF92A0A2B1B2BD3
:1005900076956795579547952F5F3F4F77FDE7CF46
:1005A0000CC0440F551F661F771F17FD4160EE0CEE
:1005B000FF1C001F111F21503040403090E05907B0
:1005C00090E0690790E4790760F32B8F3C8FDB01A3
:1005D000CA018F779070A070B07080349105A1052A
:1005E000B10561F447FD0AC0E114F10401051105EC
:1005F00029F0405C5F4F6F4F7F4F40781A8EFE1797
:1006000011F081E08A8F4D8F5E8F6F8F78A383E02A
:10061000898FCE0149960E94F503A096E2E10C94E1
:10062000E324A8E1B0E0E7E1F3E00C94D32469838C
:100630007A838B839C832D833E834F83588789E005
:10064000E82EF12CEC0EFD1ECE010196B7010E94A2
:10065000CA048E010F5E1F4FCE010596B8010E949D
:10066000CA048985823040F08989823028F0C70128
:10067000B8010E94420501C08FEF6896E6E00C9435
:10068000EF24A8E1B0E0E7E4F3E00C94D32469831D
:100690007A838B839C832D833E834F83588789E0A5
:1006A000E82EF12CEC0EFD1ECE010196B7010E9442
:1006B000CA048E010F5E1F4FCE010596B8010E943D
:1006C000CA048985823040F08989823028F0C701C8
:1006D000B8010E94420501C08FEF6896E6E00C94D5
:1006E000EF24A8E1B0E0E7E7F3E00C94D3246983BA
:1006F0007A838B839C832D833E834F83588789E045
:10070000E82EF12CEC0EFD1ECE010196B7010E94E1
:10071000CA048E010F5E1F4FCE010596B8010E94DC
:10072000CA048985823040F08989823028F0C70167
:10073000B8010E94420501C081E06896E6E00C9491
:10074000EF24ACE0B0E0E7EAF3E00C94D72469834F
:100750007A838B839C83CE010196BE016B5F7F4FB2
:100760000E94CA048D81823061F1823050F1843060
:1007700021F48E81882351F12EC02F81388537FDD9
:1007800020C06E812F3131051CF06623F9F023C0A3
:100790008EE190E0821B930B29853A854B855C8521
:1007A00004C056954795379527958A95D2F76623C5
:1007B000B1F050954095309521953F4F4F4F5F4F89
:1007C0000EC020E030E040E050E009C02FEF3FEFE6
:1007D0004FEF5FE704C020E030E040E050E8B901AF
:1007E000CA012C96E2E00C94F324DF92EF92FF9280
:1007F0000F931F93FC01E480F58006811781D1805F
:100800008081823048F480E090E0A0E1B0E0E82A06
:10081000F92A0A2B1B2BA5C0843009F49FC0823013
:1008200021F4EE24FF24870105C0E114F104010541
:10083000110519F4E0E0F0E096C0628173819FEF4A
:10084000623879070CF05BC022E83FEF261B370BBC
:100850002A3131052CF020E030E040E050E02AC0A1
:10086000B801A701022E04C0769567955795479564
:100870000A94D2F781E090E0A0E0B0E004C0880FD5
:10088000991FAA1FBB1F2A95D2F70197A109B10989
:100890008E219F21A023B1230097A105B10521F04E
:1008A00081E090E0A0E0B0E09A01AB01282B392B69
:1008B0004A2B5B2BDA01C9018F779070A070B07062
:1008C00080349105A105B10539F427FF09C0205CEA
:1008D0003F4F4F4F5F4F04C0215C3F4F4F4F5F4F23
:1008E000E0E0F0E02030A0E03A07A0E04A07A0E412
:1008F0005A0710F0E1E0F0E079018A0127C0603882
:10090000710564F5FB01E158FF4FD801C7018F77EE
:100910009070A070B07080349105A105B10539F4D4
:10092000E7FE0DC080E490E0A0E0B0E004C08FE3FB
:1009300090E0A0E0B0E0E80EF91E0A1F1B1F17FFB1
:1009400005C016950795F794E794319687E01695BC
:100950000795F794E7948A95D1F705C0EE24FF2414
:100960008701EFEFF0E06E2F679566276795902F70
:100970009F77D794DD24D7948E2F8695492F462BC9
:10098000582F5D29B701CA011F910F91FF90EF9079
:10099000DF900895FC01DB01408151812281622FAB
:1009A0006F7770E0221F2227221F9381892F880FE3
:1009B000822B282F30E0991F9927991F11969C931D
:1009C000119721153105A9F54115510561057105ED
:1009D00011F482E037C082E89FEF13969C938E93C8
:1009E00012979A01AB0167E0220F331F441F551F76
:1009F0006A95D1F783E08C930DC0220F331F441FFB
:100A0000551F12968D919C911397019713969C9365
:100A10008E931297203080E0380780E0480780E40A
:100A2000580758F314962D933D934D935C93179765
:100A300008952F3F310579F4411551056105710580
:100A400019F484E08C93089564FF03C081E08C93D3
:100A500012C01C9210C02F57304013963C932E9317
:100A6000129783E08C9387E0440F551F661F771F12
:100A70008A95D1F7706414964D935D936D937C9332
:100A8000179708951F93DC01FB019C91923008F4A5
:100A900047C08081823008F443C0943051F41196ED
:100AA0001C91843099F58181682F70E0611B710978
:100AB0003FC0843021F0923031F48230B9F181812D
:100AC000882389F12DC011961C9111978230F1F085
:100AD00081811817D9F412962D913C911397828138
:100AE00093818217930794F028173907BCF0149666
:100AF0008D919D910D90BC91A02D248135814681D1
:100B00005781281739074A075B0718F4112341F06A
:100B10000AC082179307A407B50740F4112319F000
:100B200061E070E005C06FEF7FEF02C060E070E051
:100B3000CB011F910895DF93CF9300D000D000D058
:100B4000CDB7DEB78A836B834C8319828B81883063
:100B500008F0B1C08C81823008F0ADC08A81282FA6
:100B600030E03E832D836D817E8161307105D1F14E
:100B70008D819E818230910534F42D813E81211535
:100B8000310571F095C06D817E816230710509F487
:100B90004BC08D819E818330910509F467C088C068
:100BA000AAE3B0E0EAE3F0E08081482F8B81282FB0
:100BB00030E081E090E002C0880F991F2A95E2F7AB
:100BC000809548238C81282F30E08B81882F90E0FE
:100BD000B90102C0660F771F8A95E2F7CB01842B1B
:100BE0008C936BC0A7E3B0E0E7E3F0E08081482F8F
:100BF0008B81282F30E081E090E002C0880F991FA0
:100C00002A95E2F7809548238C81282F30E08B814C
:100C1000882F90E0B90102C0660F771F8A95E2F72E
:100C2000CB01842B8C9349C0A4E3B0E0E4E3F0E073
:100C30008081482F8B81282F30E081E090E002C036
:100C4000880F991F2A95E2F7809548238C81282FD9
:100C500030E08B81882F90E0B90102C0660F771FCA
:100C60008A95E2F7CB01842B8C9327C0A1E3B0E0F7
:100C7000E1E3F0E08081482F8B81282F30E081E094
:100C800090E002C0880F991F2A95E2F780954823CB
:100C90008C81282F30E08B81882F90E0B90102C031
:100CA000660F771F8A95E2F7CB01842B8C9305C0E2
:100CB00081E0898302C081E08983898126960FB60D
:100CC000F894DEBF0FBECDBFCF91DF910895DF93C3
:100CD000CF9300D000D00F92CDB7DEB78A836B835D
:100CE00019828A818430B0F58A81282F30E03D83D3
:100CF0002C838C819D8181309105D1F02C813D81A7
:100D0000223031052CF48C819D81009761F01FC049
:100D10002C813D812230310581F08C819D81833091
:100D2000910581F014C0EAE3F0E08B81808314C068
:100D3000E7E3F0E08B8180830FC0E4E3F0E08B8198
:100D400080830AC0E1E3F0E08B81808305C081E00D
:100D5000898302C081E0898389810F900F900F9071
:100D60000F900F90CF91DF910895DF93CF9300D034
:100D700000D000D0CDB7DEB78A836B834C83198255
:100D80008B81883008F0B1C08C81823008F0ADC012
:100D90008A81282F30E03E832D836D817E816130F2
:100DA0007105D1F18D819E818230910534F42D81C0
:100DB0003E812115310571F095C06D817E816230D3
:100DC000710509F44BC08D819E818330910509F432
:100DD00067C088C0ABE3B0E0EBE3F0E08081482F70
:100DE0008B81282F30E081E090E002C0880F991FAE
:100DF0002A95E2F7809548238C81282F30E08B815B
:100E0000882F90E0B90102C0660F771F8A95E2F73C
:100E1000CB01842B8C936BC0A8E3B0E0E8E3F0E057
:100E20008081482F8B81282F30E081E090E002C044
:100E3000880F991F2A95E2F7809548238C81282FE7
:100E400030E08B81882F90E0B90102C0660F771FD8
:100E50008A95E2F7CB01842B8C9349C0A5E3B0E0DF
:100E6000E5E3F0E08081482F8B81282F30E081E09E
:100E700090E002C0880F991F2A95E2F780954823D9
:100E80008C81282F30E08B81882F90E0B90102C03F
:100E9000660F771F8A95E2F7CB01842B8C9327C0CE
:100EA000A2E3B0E0E2E3F0E08081482F8B81282FBD
:100EB00030E081E090E002C0880F991F2A95E2F7A8
:100EC000809548238C81282F30E08B81882F90E0FB
:100ED000B90102C0660F771F8A95E2F7CB01842B18
:100EE0008C9305C081E0898302C081E08983898178
:100EF00026960FB6F894DEBF0FBECDBFCF91DF911F
:100F00000895DF93CF9300D000D00F92CDB7DEB716
:100F10008A836B8319828A818430B0F58A81282F75
:100F200030E03D832C838C819D8181309105D1F00F
:100F30002C813D81223031052CF48C819D810097DC
:100F400061F01FC02C813D812230310581F08C8100
:100F50009D818330910581F014C0EBE3F0E08B813B
:100F6000808314C0E8E3F0E08B8180830FC0E5E369
:100F7000F0E08B8180830AC0E2E3F0E08B81808324
:100F800005C081E0898302C081E0898389810F9057
:100F90000F900F900F900F90CF91DF910895DF93F6
:100FA000CF93CDB7DEB727970FB6F894DEBF0FBE4D
:100FB000CDBF8A836B835D834C8319828A818430A1
:100FC00008F078C08B81883008F074C08A81282F9F
:100FD00030E03F832E834E815F814130510559F1CE
:100FE0008E819F818230910534F42E813F812115BD
:100FF000310569F05CC04E815F814230510509F4D2
:1010000042C08E819F818330910549F150C0E9E350
:10101000F0E08081282F30E08B81882F90E0A901BB
:1010200002C0559547958A95E2F7CA018170EC8117
:10103000FD81808341C0E6E3F0E08081282F30E02D
:101040008B81882F90E0A90102C0559547958A951C
:10105000E2F7CA018170EC81FD8180832DC0E0E35D
:10106000F0E08081282F30E08B81882F90E0A9016B
:1010700002C0559547958A95E2F7CA018170EC81C7
:10108000FD81808319C0E3E3F0E08081282F30E008
:101090008B81882F90E0A90102C0559547958A95CC
:1010A000E2F7CA018170EC81FD81808305C081E097
:1010B000898302C081E08983898127960FB6F894DD
:1010C000DEBF0FBECDBFCF91DF910895DF93CF93E9
:1010D00000D000D000D0CDB7DEB78A837C836B838D
:1010E00019828A81843008F03EC08A81282F30E03E
:1010F0003E832D838D819E8181309105E1F02D818C
:101100003E81223031052CF48D819E81009761F063
:1011100027C02D813E8122303105D9F08D819E81FD
:101120008330910579F01CC0E9E3F0E08081EB8128
:10113000FC8180831AC0E6E3F0E08081EB81FC81D2
:10114000808313C0E0E3F0E08081EB81FC81808349
:101150000CC0E3E3F0E08081EB81FC81808305C07B
:1011600081E0898302C081E08983898126960FB658
:10117000F894DEBF0FBECDBFCF91DF910895DF930E
:10118000CF93CDB7DEB783E060EF0E94670683E0C0
:101190006FEF0E948107CF91DF910895DF93CF9386
:1011A000CDB7DEB727970FB6F894DEBF0FBECDBF21
:1011B0009D838C831A82D8C083E06FEF0E948107E1
:1011C0008A81882F90E0FC01E85EFE4F908183E0E9
:1011D000692F40E00E94B5061982BFC08981882F1F
:1011E00090E0FC01E45EFE4F90819E012D5F3F4F39
:1011F00083E0692FA9010E94CF078B81882309F022
:10120000A9C00FC08981882F90E0FC01E45EFE4FE9
:1012100090819E012D5F3F4F83E0692FA9010E94BD
:10122000CF078B81882371F38A81282F30E03F8399
:101230002E838E819F8181309105A9F12E813F817E
:10124000223031052CF48E819F81009771F082C08D
:101250002E813F812230310509F443C08E819F8168
:101260008330910509F45AC075C08981882321F41F
:10127000EC81FD8181E080838981813021F4EC81E2
:10128000FD8184E380838981823021F4EC81FD81BA
:1012900087E380838981833009F05CC0EC81FD8124
:1012A0008DE3808357C08981882321F4EC81FD81FF
:1012B00082E080838981813021F4EC81FD8185E3A6
:1012C00080838981823021F4EC81FD8188E38083F1
:1012D0008981833009F03EC0EC81FD818AE2808300
:1012E00039C08981882321F4EC81FD8183E08083EA
:1012F0008981813021F4EC81FD8186E380838981BD
:10130000823021F4EC81FD8189E3808389818330FF
:1013100009F5EC81FD8185E280831CC089818823E9
:1013200021F4EC81FD818BE280838981813021F47D
:10133000EC81FD818DE280838981823021F4EC8112
:10134000FD818FE280838981833021F4EC81FD81EE
:1013500080E3808389818F5F89838981843008F469
:101360003DCF8A818F5F8A838A81843008F424CFBD
:1013700027960FB6F894DEBF0FBECDBFCF91DF9199
:101380000895DF93CF93CDB7DEB7E9970FB6F89402
:10139000DEBF0FBECDBF89AF81E064E040E00E94B8
:1013A000B50681E065E040E00E94B50689AD829512
:1013B0008F70982F917081E060E0492F0E94B506F0
:1013C00089AD829586958770982F917081E061E054
:1013D000492F0E94B50689AD8295869586958370C2
:1013E000982F917081E062E0492F0E94B50689AD87
:1013F000982F991F9927991F81E063E0492F0E9438
:10140000B50681E066E041E00E94B50680E090E02C
:10141000A0E8BFE38DAB9EABAFABB8AF6DA97EA923
:101420008FA998AD20E030E04AEF54E40E94170203
:10143000DC01CB0189AB9AABABABBCAB69A97AA998
:101440008BA99CA920E030E040E85FE30E94710393
:1014500088232CF481E090E098AB8FA73FC069A966
:101460007AA98BA99CA920E03FEF4FE757E40E949F
:10147000110318164CF56DA97EA98FA998AD20E02F
:1014800030E040E251E40E941702DC01CB01BC01D4
:10149000CD010E944100DC01CB0198AB8FA70FC0AA
:1014A00088EC90E09EA78DA78DA59EA50197F1F7EA
:1014B0009EA78DA78FA598A9019798AB8FA78FA5F9
:1014C00098A9009769F714C069A97AA98BA99CA962
:1014D0000E944100DC01CB0198AB8FA78FA598A992
:1014E0009CA78BA78BA59CA50197F1F79CA78BA721
:1014F00081E066E040E00E94B50680E090E0A8EC64
:10150000B2E48FA398A7A9A7BAA76FA178A589A5C8
:101510009AA520E030E04AEF54E40E941702DC0173
:10152000CB018BA39CA3ADA3BEA36BA17CA18DA17A
:101530009EA120E030E040E85FE30E947103882331
:101540002CF481E090E09AA389A33FC06BA17CA119
:101550008DA19EA120E03FEF4FE757E40E941103C9
:1015600018164CF56FA178A589A59AA520E030E062
:1015700040E251E40E941702DC01CB01BC01CD0125
:101580000E944100DC01CB019AA389A30FC088EC23
:1015900090E098A38F8F8F8D98A10197F1F798A372
:1015A0008F8F89A19AA101979AA389A389A19AA152
:1015B000009769F714C06BA17CA18DA19EA10E9428
:1015C0004100DC01CB019AA389A389A19AA19E8F36
:1015D0008D8F8D8D9E8D0197F1F79E8F8D8F89ADAB
:1015E000982F917081E060E0492F0E94B50689AD87
:1015F0008695982F917081E061E0492F0E94B50691
:1016000089AD86958695982F917081E062E0492F8B
:101610000E94B50689AD869586958695982F91701E
:1016200081E063E0492F0E94B50681E066E041E079
:101630000E94B50680E090E0A0E8BFE3898F9A8F12
:10164000AB8FBC8F698D7A8D8B8D9C8D20E030E0C7
:101650004AEF54E40E941702DC01CB018D8B9E8B74
:10166000AF8BB88F6D897E898F89988D20E030E0AF
:1016700040E85FE30E94710388232CF481E090E04E
:101680009C8B8B8B3FC06D897E898F89988D20E0E4
:101690003FEF4FE757E40E94110318164CF5698D90
:1016A0007A8D8B8D9C8D20E030E040E251E40E94E9
:1016B0001702DC01CB01BC01CD010E944100DC011D
:1016C000CB019C8B8B8B0FC088EC90E09A8B898B25
:1016D00089899A890197F1F79A8B898B8B899C89E3
:1016E00001979C8B8B8B8B899C89009769F714C021
:1016F0006D897E898F89988D0E944100DC01CB0124
:101700009C8B8B8B8B899C89988B8F878F859889F5
:101710000197F1F7988B8F8781E066E040E00E94A7
:10172000B50680E090E0A8ECB2E48B879C87AD879B
:10173000BE876B857C858D859E8520E030E04AEFF5
:1017400054E40E941702DC01CB018F839887A9879C
:10175000BA876F81788589859A8520E030E040E8F6
:101760005FE30E94710388232CF481E090E09E8364
:101770008D833FC06F81788589859A8520E03FEF12
:101780004FE757E40E94110318164CF56B857C85D2
:101790008D859E8520E030E040E251E40E941702F2
:1017A000DC01CB01BC01CD010E944100DC01CB0179
:1017B0009E838D830FC088EC90E09C838B838B810C
:1017C0009C810197F1F79C838B838D819E8101978A
:1017D0009E838D838D819E81009769F714C06F81F0
:1017E000788589859A850E944100DC01CB019E8322
:1017F0008D838D819E819A83898389819A810197C6
:10180000F1F79A838983E9960FB6F894DEBF0FBE8D
:10181000CDBFCF91DF9108950F931F93DF93CF93A7
:10182000CDB7DEB7C654D0400FB6F894DEBF0FBEBA
:10183000CDBFFE01ED5BFF4F80E090E0A0E2B2E49F
:1018400080839183A283B3838E01015C1F4FFE01CD
:10185000ED5BFF4F608171818281938120E030E0F8
:101860004AEF54E40E941702DC01CB01F8018083A7
:101870009183A283B383FE01FF966081718182818F
:10188000938120E030E040E85FE30E947103882309
:101890002CF481E090E09EAF8DAF46C0FE01FF9634
:1018A000608171818281938120E03FEF4FE757E4AF
:1018B0000E941103181664F5FE01ED5BFF4F608175
:1018C00071818281938120E030E040E251E40E9406
:1018D0001702DC01CB01BC01CD010E944100DC01FB
:1018E000CB019EAF8DAF0FC088EC90E09CAF8BAF6B
:1018F0008BAD9CAD0197F1F79CAF8BAF8DAD9EADDD
:1019000001979EAF8DAF8DAD9EAD009769F716C064
:10191000FE01FF9660817181828193810E94410066
:10192000DC01CB019EAF8DAF8DAD9EAD9AAF89AF7F
:1019300089AD9AAD0197F1F79AAF89AF81E06FEF6A
:101940000E94670682E00E94C10980E090E0A0E862
:10195000BFE38DAB9EABAFABB8AF6DA97EA98FA92E
:1019600098AD20E030E04AEF54E40E941702DC0119
:10197000CB0189AB9AABABABBCAB69A97AA98BA9FC
:101980009CA920E030E040E85FE30E9471038823D7
:101990002CF481E090E098AB8FA73FC069A97AA9A9
:1019A0008BA99CA920E03FEF4FE757E40E94110369
:1019B00018164CF56DA97EA98FA998AD20E030E0EE
:1019C00040E251E40E941702DC01CB01BC01CD01D1
:1019D0000E944100DC01CB0198AB8FA70FC088ECBF
:1019E00090E09EA78DA78DA59EA50197F1F79EA7D4
:1019F0008DA78FA598A9019798AB8FA78FA598A9B8
:101A0000009769F714C069A97AA98BA99CA90E94BB
:101A10004100DC01CB0198AB8FA78FA598A99CA7AB
:101A20008BA78BA59CA50197F1F79CA78BA788E2B4
:101A30000E94C10980E090E0A0E8BFE38FA398A7CF
:101A4000A9A7BAA76FA178A589A59AA520E030E03B
:101A50004AEF54E40E941702DC01CB018BA39CA344
:101A6000ADA3BEA36BA17CA18DA19EA120E030E01F
:101A700040E85FE30E94710388232CF481E090E04A
:101A80009AA389A33FC06BA17CA18DA19EA120E058
:101A90003FEF4FE757E40E94110318164CF56FA172
:101AA00078A589A59AA520E030E040E251E40E94A3
:101AB0001702DC01CB01BC01CD010E944100DC0119
:101AC000CB019AA389A30FC088EC90E098A38F8FD5
:101AD0008F8D98A10197F1F798A38F8F89A19AA173
:101AE00001979AA389A389A19AA1009769F714C0C5
:101AF0006BA17CA18DA19EA10E944100DC01CB01C4
:101B00009AA389A389A19AA19E8F8D8F8D8D9E8D79
:101B10000197F1F79E8F8D8F81E00E94C10980E0CF
:101B200090E0A0E7B1E4898F9A8FAB8FBC8F698D6D
:101B30007A8D8B8D9C8D20E030E04AEF54E40E943A
:101B40001702DC01CB018D8B9E8BAF8BB88F6D891B
:101B50007E898F89988D20E030E040E85FE30E9425
:101B6000710388232CF481E090E09C8B8B8B3FC029
:101B70006D897E898F89988D20E03FEF4FE757E48C
:101B80000E94110318164CF5698D7A8D8B8D9C8DF2
:101B900020E030E040E251E40E941702DC01CB017A
:101BA000BC01CD010E944100DC01CB019C8B8B8BE1
:101BB0000FC088EC90E09A8B898B89899A8901976C
:101BC000F1F79A8B898B8B899C8901979C8B8B8BE6
:101BD0008B899C89009769F714C06D897E898F89EC
:101BE000988D0E944100DC01CB019C8B8B8B8B89F3
:101BF0009C89988B8F878F8598890197F1F7988BAF
:101C00008F8780E80E94C10980E090E0A0E7B1E4FE
:101C10008B879C87AD87BE876B857C858D859E85F0
:101C200020E030E04AEF54E40E941702DC01CB01CF
:101C30008F839887A987BA876F81788589859A85E8
:101C400020E030E040E85FE30E94710388232CF439
:101C500081E090E09E838D833FC06F817885898588
:101C60009A8520E03FEF4FE757E40E9411031816D2
:101C70004CF56B857C858D859E8520E030E040E2CB
:101C800051E40E941702DC01CB01BC01CD010E948E
:101C90004100DC01CB019E838D830FC088EC90E076
:101CA0009C838B838B819C810197F1F79C838B8331
:101CB0008D819E8101979E838D838D819E8100976A
:101CC00069F714C06F81788589859A850E944100E3
:101CD000DC01CB019E838D838D819E819A838983D4
:101CE00089819A810197F1F79A8389838EE00E9416
:101CF000C109CA5BDF4F0FB6F894DEBF0FBECDBF80
:101D0000CF91DF911F910F910895DF93CF93CDB7BE
:101D1000DEB7E9970FB6F894DEBF0FBECDBF89AF2F
:101D200081E064E041E00E94B50681E065E040E0CA
:101D30000E94B50689AD82958F70982F917081E0D1
:101D400060E0492F0E94B50689AD8295869587701F
:101D5000982F917081E061E0492F0E94B50689AD0E
:101D60008295869586958370982F917081E062E0C8
:101D7000492F0E94B50689AD982F991F9927991F61
:101D800081E063E0492F0E94B50681E066E041E012
:101D90000E94B50680E090E0A0E8BFE38DAB9EAB6B
:101DA000AFABB8AF6DA97EA98FA998AD20E030E0A8
:101DB0004AEF54E40E941702DC01CB0189AB9AABD5
:101DC000ABABBCAB69A97AA98BA99CA920E030E098
:101DD00040E85FE30E94710388232CF481E090E0E7
:101DE00098AB8FA73FC069A97AA98BA99CA920E0CD
:101DF0003FEF4FE757E40E94110318164CF56DA909
:101E00007EA98FA998AD20E030E040E251E40E9425
:101E10001702DC01CB01BC01CD010E944100DC01B5
:101E2000CB0198AB8FA70FC088EC90E09EA78DA741
:101E30008DA59EA50197F1F79EA78DA78FA598A9BF
:101E4000019798AB8FA78FA598A9009769F714C041
:101E500069A97AA98BA99CA90E944100DC01CB0148
:101E600098AB8FA78FA598A99CA78BA78BA59CA59E
:101E70000197F1F79CA78BA781E066E040E00E9404
:101E8000B50680E090E0A8ECB2E48FA398A7A9A7DC
:101E9000BAA76FA178A589A59AA520E030E04AEFFE
:101EA00054E40E941702DC01CB018BA39CA3ADA3D9
:101EB000BEA36BA17CA18DA19EA120E030E040E8F3
:101EC0005FE30E94710388232CF481E090E09AA3E1
:101ED00089A33FC06BA17CA18DA19EA120E03FEF13
:101EE0004FE757E40E94110318164CF56FA178A52F
:101EF00089A59AA520E030E040E251E40E94170253
:101F0000DC01CB01BC01CD010E944100DC01CB0111
:101F10009AA389A30FC088EC90E098A38F8F8F8D30
:101F200098A10197F1F798A38F8F89A19AA10197A2
:101F30009AA389A389A19AA1009769F714C06BA1FC
:101F40007CA18DA19EA10E944100DC01CB019AA33E
:101F500089A389A19AA19E8F8D8F8D8D9E8D0197CA
:101F6000F1F79E8F8D8F89AD982F917081E060E0A1
:101F7000492F0E94B50689AD8695982F917081E012
:101F800061E0492F0E94B50689AD86958695982F08
:101F9000917081E062E0492F0E94B50689AD869577
:101FA00086958695982F917081E063E0492F0E9475
:101FB000B50681E066E041E00E94B50680E090E071
:101FC000A0E8BFE3898F9A8FAB8FBC8F698D7A8D24
:101FD0008B8D9C8D20E030E04AEF54E40E94170284
:101FE000DC01CB018D8B9E8BAF8BB88F6D897E8989
:101FF0008F89988D20E030E040E85FE30E94710314
:1020000088232CF481E090E09C8B8B8B3FC06D8902
:102010007E898F89988D20E03FEF4FE757E40E943B
:10202000110318164CF5698D7A8D8B8D9C8D20E0EF
:1020300030E040E251E40E941702DC01CB01BC0118
:10204000CD010E944100DC01CB019C8B8B8B0FC02A
:1020500088EC90E09A8B898B89899A890197F1F7AE
:102060009A8B898B8B899C8901979C8B8B8B8B8915
:102070009C89009769F714C06D897E898F89988D36
:102080000E944100DC01CB019C8B8B8B8B899C894E
:10209000988B8F878F8598890197F1F7988B8F8719
:1020A00081E066E040E00E94B50680E090E0A8ECA8
:1020B000B2E48B879C87AD87BE876B857C858D85D9
:1020C0009E8520E030E04AEF54E40E941702DC01D4
:1020D000CB018F839887A987BA876F817885898597
:1020E0009A8520E030E040E85FE30E947103882396
:1020F0002CF481E090E09E838D833FC06F817885D2
:1021000089859A8520E03FEF4FE757E40E9411034D
:1021100018164CF56B857C858D859E8520E030E01A
:1021200040E251E40E941702DC01CB01BC01CD0169
:102130000E944100DC01CB019E838D830FC088EC9F
:1021400090E09C838B838B819C810197F1F79C832A
:102150008B838D819E8101979E838D838D819E814E
:10216000009769F714C06F81788589859A850E94E8
:102170004100DC01CB019E838D838D819E819A83FA
:10218000898389819A810197F1F79A838983E996F6
:102190000FB6F894DEBF0FBECDBFCF91DF9108958B
:1021A000DF93CF9300D00F92CDB7DEB79B838A83A6
:1021B00019820EC08981282F30E08A819B81FC0121
:1021C000E20FF31F80810E94850E89818F5F8983D2
:1021D0008981282F30E08A819B81FC01E20FF31F67
:1021E0008081882339F70F900F900F90CF91DF9166
:1021F0000895DF93CF93CDB7DEB782E06FEF0E94F3
:102200006706CF91DF910895DF93CF93CDB7DEB707
:1022100082E060E00E948107CF91DF910895DF9313
:10222000CF93CDB7DEB7E8970FB6F894DEBF0FBEF9
:10223000CDBF82E060E040E00E94B50682E061E050
:1022400040E00E94B50682E062E040E00E94B506F0
:1022500082E063E041E00E94B50680E090E0A0E209
:10226000B1E48DAB9EABAFABB8AF6DA97EA98FA922
:1022700098AD20E030E04AEF54E40E941702DC0100
:10228000CB0189AB9AABABABBCAB69A97AA98BA9E3
:102290009CA920E030E040E85FE30E9471038823BE
:1022A0002CF481E090E098AB8FA73FC069A97AA990
:1022B0008BA99CA920E03FEF4FE757E40E94110350
:1022C00018164CF56DA97EA98FA998AD20E030E0D5
:1022D00040E251E40E941702DC01CB01BC01CD01B8
:1022E0000E944100DC01CB0198AB8FA70FC088ECA6
:1022F00090E09EA78DA78DA59EA50197F1F79EA7BB
:102300008DA78FA598A9019798AB8FA78FA598A99E
:10231000009769F714C069A97AA98BA99CA90E94A2
:102320004100DC01CB0198AB8FA78FA598A99CA792
:102330008BA78BA59CA50197F1F79CA78BA782E0A3
:1023400060E040E00E94B50682E061E040E00E946B
:10235000B50682E062E041E00E94B50682E063E0FB
:1023600040E00E94B50680E090E0A0E2B1E48FA3D7
:1023700098A7A9A7BAA76FA178A589A59AA520E0D3
:1023800030E04AEF54E40E941702DC01CB018BA33A
:102390009CA3ADA3BEA36BA17CA18DA19EA120E0B7
:1023A00030E040E85FE30E94710388232CF481E071
:1023B00090E09AA389A33FC06BA17CA18DA19EA1AF
:1023C00020E03FEF4FE757E40E94110318164CF549
:1023D0006FA178A589A59AA520E030E040E251E4FC
:1023E0000E941702DC01CB01BC01CD010E9441001B
:1023F000DC01CB019AA389A30FC088EC90E098A3DD
:102400008F8F8F8D98A10197F1F798A38F8F89A156
:102410009AA101979AA389A389A19AA1009769F724
:1024200014C06BA17CA18DA19EA10E944100DC0182
:10243000CB019AA389A389A19AA19E8F8D8F8D8D9F
:102440009E8D0197F1F79E8F8D8F82E060E040E0D6
:102450000E94B50682E061E041E00E94B50682E09C
:1024600062E040E00E94B50682E063E040E00E9446
:10247000B50680E090E0A0E2B1E4898F9A8FAB8F3F
:10248000BC8F698D7A8D8B8D9C8D20E030E04AEF7A
:1024900054E40E941702DC01CB018D8B9E8BAF8B25
:1024A000B88F6D897E898F89988D20E030E040E873
:1024B0005FE30E94710388232CF481E090E09C8B01
:1024C0008B8B3FC06D897E898F89988D20E03FEF8F
:1024D0004FE757E40E94110318164CF5698D7A8D69
:1024E0008B8D9C8D20E030E040E251E40E94170289
:1024F000DC01CB01BC01CD010E944100DC01CB011C
:102500009C8B8B8B0FC088EC90E09A8B898B898990
:102510009A890197F1F79A8B898B8B899C8901970E
:102520009C8B8B8B8B899C89009769F714C06D8974
:102530007E898F89988D0E944100DC01CB019C8BA4
:102540008B8B8B899C89988B8F878F859889019736
:10255000F1F7988B8F8782E060E041E00E94B5063A
:1025600082E061E040E00E94B50682E062E040E087
:102570000E94B50682E063E040E00E94B50680E07C
:1025800090E0A0E2B1E48B879C87AD87BE876B8526
:102590007C858D859E8520E030E04AEF54E40E94E2
:1025A0001702DC01CB018F839887A987BA876F81D7
:1025B000788589859A8520E030E040E85FE30E94D5
:1025C000710388232CF481E090E09E838D833FC0CB
:1025D0006F81788589859A8520E03FEF4FE757E442
:1025E0000E94110318164CF56B857C858D859E85A0
:1025F00020E030E040E251E40E941702DC01CB0110
:10260000BC01CD010E944100DC01CB019E838D8382
:102610000FC088EC90E09C838B838B819C81019719
:10262000F1F79C838B838D819E8101979E838D839F
:102630008D819E81009769F714C06F8178858985A7
:102640009A850E944100DC01CB019E838D838D81A0
:102650009E819A83898389819A810197F1F79A8370
:102660008983E8960FB6F894DEBF0FBECDBFCF9139
:10267000DF910895DF93CF93CDB7DEB7E8970FB61C
:10268000F894DEBF0FBECDBF82E060E040E00E9464
:10269000B50682E061E040E00E94B50682E062E0BB
:1026A00040E00E94B50682E063E041E00E94B5068A
:1026B00080E090E0A0E4B0E48DAB9EABAFABB8AFF0
:1026C0006DA97EA98FA998AD20E030E04AEF54E4CF
:1026D0000E941702DC01CB0189AB9AABABABBCAB60
:1026E00069A97AA98BA99CA920E030E040E85FE3C2
:1026F0000E94710388232CF481E090E098AB8FA7AF
:102700003FC069A97AA98BA99CA920E03FEF4FE7B8
:1027100057E40E94110318164CF56DA97EA98FA9E4
:1027200098AD20E030E040E251E40E941702DC0165
:10273000CB01BC01CD010E944100DC01CB0198AB73
:102740008FA70FC088EC90E09EA78DA78DA59EA5B2
:102750000197F1F79EA78DA78FA598A9019798AB30
:102760008FA78FA598A9009769F714C069A97AA9BE
:102770008BA99CA90E944100DC01CB0198AB8FA7DB
:102780008FA598A99CA78BA78BA59CA50197F1F76E
:102790009CA78BA782E060E041E00E94B50682E042
:1027A00061E040E00E94B50682E062E040E00E9405
:1027B000B50682E063E040E00E94B50680E090E06C
:1027C000A0E4B0E48FA398A7A9A7BAA76FA178A5A2
:1027D00089A59AA520E030E04AEF54E40E94170250
:1027E000DC01CB018BA39CA3ADA3BEA36BA17CA1F9
:1027F0008DA19EA120E030E040E85FE30E947103DC
:1028000088232CF481E090E09AA389A33FC06BA1B8
:102810007CA18DA19EA120E03FEF4FE757E40E94ED
:10282000110318164CF56FA178A589A59AA520E08B
:1028300030E040E251E40E941702DC01CB01BC0110
:10284000CD010E944100DC01CB019AA389A30FC0F6
:1028500088EC90E098A38F8F8F8D98A10197F1F766
:1028600098A38F8F89A19AA101979AA389A389A17F
:102870009AA1009769F714C06BA17CA18DA19EA1BC
:102880000E944100DC01CB019AA389A389A19AA1EE
:102890009E8F8D8F8D8D9E8D0197F1F79E8F8D8FE1
:1028A00082E060E040E00E94B50682E061E041E045
:1028B0000E94B50682E062E040E00E94B50682E038
:1028C00063E040E00E94B50680E090E0A0E4B0E460
:1028D000898F9A8FAB8FBC8F698D7A8D8B8D9C8DF4
:1028E00020E030E04AEF54E40E941702DC01CB0103
:1028F0008D8B9E8BAF8BB88F6D897E898F89988DDC
:1029000020E030E040E85FE30E94710388232CF46C
:1029100081E090E09C8B8B8B3FC06D897E898F8995
:10292000988D20E03FEF4FE757E40E9411031816FF
:102930004CF5698D7A8D8B8D9C8D20E030E040E2E6
:1029400051E40E941702DC01CB01BC01CD010E94C1
:102950004100DC01CB019C8B8B8B0FC088EC90E09D
:102960009A8B898B89899A890197F1F79A8B898B40
:102970008B899C8901979C8B8B8B8B899C89009779
:1029800069F714C06D897E898F89988D0E944100F6
:10299000DC01CB019C8B8B8B8B899C89988B8F87DF
:1029A0008F8598890197F1F7988B8F8782E060E097
:1029B00040E00E94B50682E061E040E00E94B5067A
:1029C00082E062E041E00E94B50682E063E040E020
:1029D0000E94B50680E090E0A0E4B0E48B879C877D
:1029E000AD87BE876B857C858D859E8520E030E038
:1029F0004AEF54E40E941702DC01CB018F839887D1
:102A0000A987BA876F81788589859A8520E030E02B
:102A100040E85FE30E94710388232CF481E090E09A
:102A20009E838D833FC06F81788589859A8520E05C
:102A30003FEF4FE757E40E94110318164CF56B85E2
:102A40007C858D859E8520E030E040E251E40E9447
:102A50001702DC01CB01BC01CD010E944100DC0169
:102A6000CB019E838D830FC088EC90E09C838B8389
:102A70008B819C810197F1F79C838B838D819E8153
:102A800001979E838D838D819E81009769F714C085
:102A90006F81788589859A850E944100DC01CB0190
:102AA0009E838D838D819E819A83898389819A817A
:102AB0000197F1F79A838983E8960FB6F894DEBF01
:102AC0000FBECDBFCF91DF9108950F931F93DF937A
:102AD000CF93CDB7DEB7C65CD1400FB6F894DEBF5A
:102AE0000FBECDBFFE01E753FF4F1082FE01E6533C
:102AF000FF4F1082FE01E553FF4F1082FE01E853A5
:102B0000FF4F1082FE01E953FF4F1082FE01EA538E
:102B1000FF4F1082FE01EB53FF4F1082CE01845312
:102B20009F4FC458DE4F99838883CC57D14080E6AD
:102B300090E0C258DE4F99838883CE57D14090E110
:102B4000C058DE4F9883C058D140C258DE4FE8814C
:102B5000F981CE57D1400080C258DE4F88819981DB
:102B6000CE57D1400196C258DE4F99838883CE5705
:102B7000D140C458DE4FE881F981CC57D140008262
:102B8000C458DE4F88819981CC57D1400196C458F2
:102B9000DE4F99838883CC57D140C058DE4F98814F
:102BA000C058D1409150C058DE4F9883C058D14092
:102BB000C058DE4FE881C058D140EE2331F6CE0137
:102BC00084529F4FCF57DE4F99838883C158D1409D
:102BD00080E790E0CD57DE4F99838883C358D1407A
:102BE00091E1CB57DE4F9883C558D140CD57DE4F8A
:102BF000E881F981C358D1400080CD57DE4F8881EC
:102C00009981C358D1400196CD57DE4F998388836F
:102C1000C358D140CF57DE4FE881F981C158D14028
:102C20000082CF57DE4F88819981C158D1400196EB
:102C3000CF57DE4F99838883C158D140CB57DE4FA1
:102C40009881C558D1409150CB57DE4F9883C558D5
:102C5000D140CB57DE4FE881C558D140EE2331F645
:102C6000CE0183519F4FCA57DE4F99838883C65840
:102C7000D14081E890E0C857DE4F99838883C858D7
:102C8000D1409CE0C657DE4F9883CA58D140C85700
:102C9000DE4FE881F981C858D1400080C857DE4F27
:102CA00088819981C858D1400196C857DE4F9983D1
:102CB0008883C858D140CA57DE4FE881F981C65889
:102CC000D1400082CA57DE4F88819981C658D140D1
:102CD0000196CA57DE4F99838883C658D140C6579C
:102CE000DE4F9881CA58D1409150C657DE4F988325
:102CF000CA58D140C657DE4FE881CA58D140EE23AA
:102D000031F6CE0187509F4FC557DE4F9983888398
:102D1000CB58D1408DE890E0C357DE4F998388832C
:102D2000CD58D1409EE0C157DE4F9883CF58D14057
:102D3000C357DE4FE881F981CD58D1400080C35799
:102D4000DE4F88819981CD58D1400196C357DE4F1F
:102D500099838883CD58D140C557DE4FE881F981EA
:102D6000CB58D1400082C557DE4F88819981CB581E
:102D7000D1400196C557DE4F99838883CB58D14007
:102D8000C157DE4F9881CF58D1409150C157DE4F87
:102D90009883CF58D140C157DE4FE881CF58D140FA
:102DA000EE2331F6CE01895F9E4FC057DE4F9983E7
:102DB0008883C059D1408BE990E0CE56DE4F99838D
:102DC0008883C259D1409FE0CC56DE4F9883C459C6
:102DD000D140CE56DE4FE881F981C259D140008002
:102DE000CE56DE4F88819981C259D1400196CE5688
:102DF000DE4F99838883C259D140C057DE4FE881A6
:102E0000F981C059D1400082C057DE4F8881998135
:102E1000C059D1400196C057DE4F99838883C0596D
:102E2000D140CC56DE4F9881C459D1409150CC56F8
:102E3000DE4F9883C459D140CC56DE4FE881C45947
:102E4000D140EE2331F6CE018A5E9E4FCB56DE4F47
:102E500099838883C559D1408AEA90E0C956DE4FEC
:102E600099838883C759D14099E0C756DE4F98832C
:102E7000C959D140C956DE4FE881F981C759D140BF
:102E80000080C956DE4F88819981C759D14001968B
:102E9000C956DE4F99838883C759D140CB56DE4F40
:102EA000E881F981C559D1400082CB56DE4F888137
:102EB0009981C559D1400196CB56DE4F99838883BD
:102EC000C559D140C756DE4F9881C959D14091505C
:102ED000C756DE4F9883C959D140C756DE4FE881A7
:102EE000C959D140EE2331F6CE01815E9E4FC656C0
:102EF000DE4F99838883CA59D14083EB90E0C45652
:102F0000DE4F99838883CC59D1409AE0C256DE4F78
:102F10009883CE59D140C456DE4FE881F981CC590F
:102F2000D1400080C456DE4F88819981CC59D14070
:102F30000196C456DE4F99838883CC59D140C6563A
:102F4000DE4FE881F981CA59D1400082C656DE4F72
:102F500088819981CA59D1400196C656DE4F99831E
:102F60008883CA59D140C256DE4F9881CE59D1408C
:102F70009150C256DE4F9883CE59D140C256DE4F93
:102F8000E881CE59D140EE2331F6CE01875D9E4FC8
:102F9000C156DE4F99838883CF59D1408DEB90E0A5
:102FA000CF55DE4F99838883C15AD1409FE0CD55DC
:102FB000DE4F9883C35AD140CF55DE4FE881F98167
:102FC000C15AD1400080CF55DE4F88819981C15AC6
:102FD000D1400196CF55DE4F99838883C15AD140A5
:102FE000C156DE4FE881F981CF59D1400082C156E8
:102FF000DE4F88819981CF59D1400196C156DE4F6D
:1030000099838883CF59D140CD55DE4F9881C35ADB
:10301000D1409150CD55DE4F9883C35AD140CD5504
:10302000DE4FE881C35AD140EE2331F6CE01885CF1
:103030009E4FCC55DE4F99838883C45AD1408CEC87
:1030400090E0CA55DE4F99838883C65AD1409BE0F1
:10305000C855DE4F9883C85AD140CA55DE4FE88123
:10306000F981C65AD1400080CA55DE4F88819981C6
:10307000C65AD1400196CA55DE4F99838883C65AF5
:10308000D140CC55DE4FE881F981C45AD14000824D
:10309000CC55DE4F88819981C45AD1400196CC55D8
:1030A000DE4F99838883C45AD140C855DE4F98813A
:1030B000C85AD1409150C855DE4F9883C85AD14064
:1030C000C855DE4FE881C85AD140EE2331F6CE0113
:1030D0008D5B9E4FC755DE4F99838883C95AD14077
:1030E00087ED90E0C555DE4F99838883CB5AD14058
:1030F0009BE0C355DE4F9883CD5AD140C555DE4F76
:10310000E881F981CB5AD1400080C555DE4F8881D6
:103110009981CB5AD1400196C555DE4F998388835A
:10312000CB5AD140C755DE4FE881F981C95AD14009
:103130000082C755DE4F88819981C95AD1400196D6
:10314000C755DE4F99838883C95AD140C355DE4F96
:103150009881CD5AD1409150C355DE4F9883CD5AB6
:10316000D140C355DE4FE881CD5AD140EE2331F630
:10317000CE01825B9E4FC255DE4F99838883CE5A23
:10318000D14082EE90E0C055DE4F99838883C05BCA
:10319000D1409BE0CE54DE4F9883C25BD140C055F6
:1031A000DE4FE881F981C05BD1400080C055DE4F21
:1031B00088819981C05BD1400196C055DE4F9983CB
:1031C0008883C05BD140C255DE4FE881F981CE5A79
:1031D000D1400082C255DE4F88819981CE5AD140BC
:1031E0000196C255DE4F99838883CE5AD140CE5482
:1031F000DE4F9881C25BD1409150CE54DE4F988310
:10320000C25BD140CE54DE4FE881C25BD140EE2399
:1032100031F6CE01875A9E4FCD54DE4F9983888375
:10322000C35BD1408DEE90E0CB54DE4F9983888311
:10323000C55BD1409CE0C954DE4F9883C75BD14049
:10324000CB54DE4FE881F981C55BD1400080CB547F
:10325000DE4F88819981C55BD1400196CB54DE4F0A
:1032600099838883C55BD140CD54DE4FE881F981D5
:10327000C35BD1400082CD54DE4F88819981C35B0E
:10328000D1400196CD54DE4F99838883C35BD140F2
:10329000C954DE4F9881C75BD1409150C954DE4F6D
:1032A0009883C75BD140C954DE4FE881C75BD140EA
:1032B000EE2331F6CE018B599E4FC854DE4F9983D1
:1032C0008883C85BD14089EF90E0C654DE4F998374
:1032D0008883CA5BD14096E0C454DE4F9883CC5BB0
:1032E000D140C654DE4FE881F981CA5BD1400080ED
:1032F000C654DE4F88819981CA5BD1400196C6547D
:10330000DE4F99838883CA5BD140C854DE4FE88181
:10331000F981C85BD1400082C854DE4F8881998111
:10332000C85BD1400196C854DE4F99838883C85B3F
:10333000D140C454DE4F9881CC5BD1409150C454ED
:10334000DE4F9883CC5BD140C454DE4FE881CC5B28
:10335000D140EE2331F6CE0185599E4FC354DE4F46
:1033600099838883CD5BD1408FEF90E0C154DE4FCD
:1033700099838883CF5BD14097E0CF53DE4F98830A
:10338000C15CD140C154DE4FE881F981CF5BD140AF
:103390000080C154DE4F88819981CF5BD140019676
:1033A000C154DE4F99838883CF5BD140C354DE4F35
:1033B000E881F981CD5BD1400082C354DE4F888122
:1033C0009981CD5BD1400196C354DE4F99838883A8
:1033D000CD5BD140CF53DE4F9881C15CD14091503D
:1033E000CF53DE4F9883C15CD140CF53DE4FE8818D
:1033F000C15CD140EE2331F6CE018E589E4FCE53A4
:10340000DE4F99838883C25CD14086E091E0CC5343
:10341000DE4F99838883C45CD1409AE0CA53DE4F63
:103420009883C65CD140CC53DE4FE881F981C45CFF
:10343000D1400080CC53DE4F88819981C45CD1405B
:103440000196CC53DE4F99838883C45CD140CE5320
:10345000DE4FE881F981C25CD1400082CE53DE4F5D
:1034600088819981C25CD1400196CE53DE4F998309
:103470008883C25CD140CA53DE4F9881C65CD1407C
:103480009150CA53DE4F9883C65CD140CA53DE4F79
:10349000E881C65CD140EE2331F60E940C0C0E94FC
:1034A000BF080E94F91080E06FEF0E946706CE010E
:1034B00084539F4F0E94D01080EC0E94C109CE011E
:1034C0008D5B9E4F0E94D01081E00E94C109FE01D9
:1034D000EF53FF4F80E090E0A0E2B1E4808391835E
:1034E000A283B3838E0103541F4FFE01EF53FF4F9E
:1034F000608171818281938120E030E04AEF54E461
:103500000E941702DC01CB01F80180839183A28322
:10351000B383FE01E354FF4F608171818281938107
:1035200020E030E040E85FE30E947103882344F428
:10353000FE01E554FF4F81E090E09183808364C0F9
:10354000FE01E354FF4F608171818281938120E00D
:103550003FEF4FE757E40E94110318160CF043C0E9
:10356000FE01EF53FF4F608171818281938120E0E2
:1035700030E040E251E40E941702DC01CB018E01F1
:1035800005541F4FBC01CD010E944100DC01CB015D
:10359000F801918380831FC0FE01E754FF4F88EC40
:1035A00090E091838083FE01E754FF4F80819181F9
:1035B0000197F1F7FE01E754FF4F91838083DE010D
:1035C000A554BF4FFE01E554FF4F808191810197C3
:1035D00011969C938E93FE01E554FF4F808191815B
:1035E0000097D1F627C08E0105541F4FFE01E3540A
:1035F000FF4F60817181828193810E944100DC01D3
:10360000CB01F80191838083DE01A954BF4FFE01F5
:10361000E554FF4F808191818D939C93FE01E95485
:10362000FF4F808191810197F1F7FE01E954FF4F2F
:103630009183808380E80E94C109CE018E589E4FFD
:103640000E94D010FE01ED54FF4F80E090E0AAEF01
:10365000B3E480839183A283B3838E0101551F4F0E
:10366000FE01ED54FF4F608171818281938120E0E2
:1036700030E04AEF54E40E941702DC01CB01F8016C
:1036800080839183A283B383FE01E155FF4F608164
:1036900071818281938120E030E040E85FE30E9405
:1036A0007103882344F4FE01E355FF4F81E090E06D
:1036B0009183808364C0FE01E155FF4F6081718179
:1036C0008281938120E03FEF4FE757E40E9411038E
:1036D00018160CF043C0FE01ED54FF4F608171815C
:1036E0008281938120E030E040E251E40E941702A1
:1036F000DC01CB018E0103551F4FBC01CD010E949F
:103700004100DC01CB01F801918380831FC0FE01E1
:10371000E555FF4F88EC90E091838083FE01E555ED
:10372000FF4F808191810197F1F7FE01E555FF4F31
:1037300091838083DE01A355BF4FFE01E355FF4F08
:1037400080819181019711969C938E93FE01E355A0
:10375000FF4F808191810097D1F627C08E010355DC
:103760001F4FFE01E155FF4F60817181828193817E
:103770000E944100DC01CB01F80191838083DE01CE
:10378000A755BF4FFE01E355FF4F808191818D9377
:103790009C93FE01E755FF4F808191810197F1F7DE
:1037A000FE01E755FF4F9183808381E00E94C109AC
:1037B000CE0184529F4F0E94D01080EC0E94C1091C
:1037C000CE0183519F4F0E94D010FE01E753FF4F5F
:1037D0008081813029F0CE0186539F4F0E94CE0810
:1037E000FE01E653FF4F8081813009F0FDC4FE01E8
:1037F000E753FF4F81E08083FE01E853FF4F808154
:10380000882309F0C6C081E00E94C109FE01EB5582
:10381000FF4F80E090E0A0E2B1E480839183A28337
:10382000B3838E010F551F4FFE01EB55FF4F608193
:1038300071818281938120E030E04AEF54E40E945C
:103840001702DC01CB01F80180839183A283B3834B
:10385000FE01EF55FF4F608171818281938120E0ED
:1038600030E040E85FE30E947103882344F4FE01E6
:10387000E156FF4F81E090E09183808364C0FE01B8
:10388000EF55FF4F608171818281938120E03FEF8E
:103890004FE757E40E94110318160CF043C0FE01D5
:1038A000EB55FF4F608171818281938120E030E090
:1038B00040E251E40E941702DC01CB018E01015667
:1038C0001F4FBC01CD010E944100DC01CB01F8017A
:1038D000918380831FC0FE01E356FF4F88EC90E088
:1038E00091838083FE01E356FF4F80819181019790
:1038F000F1F7FE01E356FF4F91838083DE01A1566D
:10390000BF4FFE01E156FF4F8081918101971196D3
:103910009C938E93FE01E156FF4F80819181009729
:10392000D1F627C08E0101561F4FFE01EF55FF4F04
:1039300060817181828193810E944100DC01CB0111
:10394000F80191838083DE01A556BF4FFE01E15649
:10395000FF4F808191818D939C93FE01E556FF4F2F
:10396000808191810197F1F7FE01E556FF4F918328
:10397000808380E80E94C109CE0187509F4F0E943A
:10398000D01080EC0E94C109CE01895F9E4F0E9439
:10399000D010CE0185539F4F0E94CE08FE01E55303
:1039A000FF4F8081813009F0DCC0FE01E953FF4FF9
:1039B0008081882309F0C9C081E00E94C109FE010D
:1039C000E956FF4F80E090E0A0E2B1E4808391836C
:1039D000A283B3838E010D561F4FFE01E956FF4FA0
:1039E000608171818281938120E030E04AEF54E46C
:1039F0000E941702DC01CB01F80180839183A2832E
:103A0000B383FE01ED56FF4F608171818281938106
:103A100020E030E040E85FE30E947103882344F433
:103A2000FE01EF56FF4F81E090E09183808364C0F8
:103A3000FE01ED56FF4F608171818281938120E00C
:103A40003FEF4FE757E40E94110318160CF043C0F4
:103A5000FE01E956FF4F608171818281938120E0F0
:103A600030E040E251E40E941702DC01CB018E01FC
:103A70000F561F4FBC01CD010E944100DC01CB015C
:103A8000F801918380831FC0FE01E157FF4F88EC4E
:103A900090E091838083FE01E157FF4F8081918107
:103AA0000197F1F7FE01E157FF4F91838083DE011B
:103AB000AF56BF4FFE01EF56FF4F808191810197B6
:103AC00011969C938E93FE01EF56FF4F808191815A
:103AD0000097D1F627C08E010F561F4FFE01ED56FD
:103AE000FF4F60817181828193810E944100DC01DE
:103AF000CB01F80191838083DE01A357BF4FFE0104
:103B0000EF56FF4F808191818D939C93FE01E35787
:103B1000FF4F808191810197F1F7FE01E357FF4F3D
:103B20009183808380E80E94C109CE01875D9E4F0A
:103B30000E94D01083EF0E94850E80EC0E94C10984
:103B4000CE01825B9E4F0E94D0100E940F11FE0199
:103B5000E953FF4F8AE08083FE01EB53FF4F108251
:103B60003DC3FE01E553FF4F8081823009F0DCC088
:103B7000FE01E953FF4F8081882309F0C9C081E02D
:103B80000E94C109FE01E757FF4F80E090E0A0E2EC
:103B9000B1E480839183A283B3838E010B571F4FBF
:103BA000FE01E757FF4F608171818281938120E0A0
:103BB00030E04AEF54E40E941702DC01CB01F80127
:103BC00080839183A283B383FE01EB57FF4F608113
:103BD00071818281938120E030E040E85FE30E94C0
:103BE0007103882344F4FE01ED57FF4F81E090E01C
:103BF0009183808364C0FE01EB57FF4F6081718128
:103C00008281938120E03FEF4FE757E40E94110348
:103C100018160CF043C0FE01E757FF4F6081718119
:103C20008281938120E030E040E251E40E9417025B
:103C3000DC01CB018E010D571F4FBC01CD010E944D
:103C40004100DC01CB01F801918380831FC0FE019C
:103C5000EF57FF4F88EC90E091838083FE01EF5790
:103C6000FF4F808191810197F1F7FE01EF57FF4FE0
:103C700091838083DE01AD57BF4FFE01ED57FF4FAB
:103C800080819181019711969C938E93FE01ED574F
:103C9000FF4F808191810097D1F627C08E010D578B
:103CA0001F4FFE01EB57FF4F60817181828193812D
:103CB0000E944100DC01CB01F80191838083DE0189
:103CC000A158BF4FFE01ED57FF4F808191818D9329
:103CD0009C93FE01E158FF4F808191810197F1F79C
:103CE000FE01E158FF4F9183808380E80E94C10963
:103CF000CE01875D9E4F0E94D01083EF0E94850EFB
:103D000080EC0E94C109CE01875A9E4F0E94D010BC
:103D10000E943A13FE01E953FF4F8AE08083FE01BF
:103D2000EB53FF4F10825AC2FE01E553FF4F8081D3
:103D3000833009F053C20E94041182E066E040E043
:103D40000E94B50682E067E040E00E94B506FE01F1
:103D5000EB53FF4F8081882309F037C281E00E9436
:103D6000C109FE01E558FF4F80E090E0A0E2B1E418
:103D700080839183A283B3838E0109581F4FFE0174
:103D8000E558FF4F608171818281938120E030E0AE
:103D90004AEF54E40E941702DC01CB01F801808352
:103DA0009183A283B383FE01E958FF4F6081718143
:103DB0008281938120E030E040E85FE30E9471035C
:103DC000882344F4FE01EB58FF4F81E090E091839B
:103DD000808364C0FE01E958FF4F60817181828158
:103DE000938120E03FEF4FE757E40E94110318163C
:103DF0000CF043C0FE01E558FF4F60817181828164
:103E0000938120E030E040E251E40E941702DC019F
:103E1000CB018E010B581F4FBC01CD010E94410008
:103E2000DC01CB01F801918380831FC0FE01ED58B6
:103E3000FF4F88EC90E091838083FE01ED58FF4FA7
:103E4000808191810197F1F7FE01ED58FF4F918339
:103E50008083DE01AB58BF4FFE01EB58FF4F8081DE
:103E60009181019711969C938E93FE01EB58FF4F21
:103E7000808191810097D1F627C08E010B581F4F8A
:103E8000FE01E958FF4F60817181828193810E9418
:103E90004100DC01CB01F80191838083DE01AF5842
:103EA000BF4FFE01EB58FF4F808191818D939C9312
:103EB000FE01EF58FF4F808191810197F1F7FE01DC
:103EC000EF58FF4F9183808380E80E94C109CE01A3
:103ED000885C9E4F0E94D010FE01E359FF4F80E0A6
:103EE00090E0AAEFB3E480839183A283B3838E0131
:103EF00007591F4FFE01E359FF4F60817181828195
:103F0000938120E030E04AEF54E40E941702DC0184
:103F1000CB01F80180839183A283B383FE01E7592B
:103F2000FF4F608171818281938120E030E040E821
:103F30005FE30E947103882344F4FE01E959FF4FB7
:103F400081E090E09183808364C0FE01E759FF4FD8
:103F5000608171818281938120E03FEF4FE757E4D8
:103F60000E94110318160CF043C0FE01E359FF4FE5
:103F7000608171818281938120E030E040E251E4F0
:103F80000E941702DC01CB018E0109591F4FBC01B1
:103F9000CD010E944100DC01CB01F80191838083B7
:103FA0001FC0FE01EB59FF4F88EC90E091838083A6
:103FB000FE01EB59FF4F808191810197F1F7FE01DE
:103FC000EB59FF4F91838083DE01A959BF4FFE015A
:103FD000E959FF4F80819181019711969C938E93AF
:103FE000FE01E959FF4F808191810097D1F627C0EA
:103FF0008E0109591F4FFE01E759FF4F6081718102
:10400000828193810E944100DC01CB01F801918300
:104010008083DE01AD59BF4FFE01E959FF4F80811A
:1040200091818D939C93FE01ED59FF4F8081918189
:104030000197F1F7FE01ED59FF4F9183808381E0F5
:104040000E94C109FE01E15AFF4F80E090E0A0E22A
:10405000B1E480839183A283B3838E01055A1F4FFD
:10406000FE01E15AFF4F608171818281938120E0DE
:1040700030E04AEF54E40E941702DC01CB01F80162
:1040800080839183A283B383FE01E55AFF4F608151
:1040900071818281938120E030E040E85FE30E94FB
:1040A0007103882344F4FE01E75AFF4F81E090E05A
:1040B0009183808364C0FE01E55AFF4F6081718166
:1040C0008281938120E03FEF4FE757E40E94110384
:1040D00018160CF043C0FE01E15AFF4F6081718158
:1040E0008281938120E030E040E251E40E94170297
:1040F000DC01CB018E01075A1F4FBC01CD010E948C
:104100004100DC01CB01F801918380831FC0FE01D7
:10411000E95AFF4F88EC90E091838083FE01E95AD1
:10412000FF4F808191810197F1F7FE01E95AFF4F1E
:1041300091838083DE01A75ABF4FFE01E75AFF4FEC
:1041400080819181019711969C938E93FE01E75A8D
:10415000FF4F808191810097D1F627C08E01075AC9
:104160001F4FFE01E55AFF4F60817181828193816B
:104170000E944100DC01CB01F80191838083DE01C4
:10418000AB5ABF4FFE01E75AFF4F808191818D935B
:104190009C93FE01EB5AFF4F808191810197F1F7CB
:1041A000FE01EB5AFF4F9183808380E80E94C10992
:1041B000CE0187509F4F0E94D01080EC0E94C10911
:1041C000CE01895F9E4F0E94D010FE01EB53FF4F3E
:1041D00084E18083FE01E953FF4F1082FE01E85322
:1041E000FF4F8AE08083F1CAFE01E653FF4F8081D2
:1041F000823009F0EACAFE01E753FF4F81E0808375
:10420000FE01EA53FF4F8081882309F0C6C081E098
:104210000E94C109FE01EF5AFF4F80E090E0A0E24A
:10422000B1E480839183A283B3838E01035B1F4F2C
:10423000FE01EF5AFF4F608171818281938120E0FE
:1042400030E04AEF54E40E941702DC01CB01F80190
:1042500080839183A283B383FE01E35BFF4F608180
:1042600071818281938120E030E040E85FE30E9429
:104270007103882344F4FE01E55BFF4F81E090E089
:104280009183808364C0FE01E35BFF4F6081718195
:104290008281938120E03FEF4FE757E40E941103B2
:1042A00018160CF043C0FE01EF5AFF4F6081718178
:1042B0008281938120E030E040E251E40E941702C5
:1042C000DC01CB018E01055B1F4FBC01CD010E94BB
:1042D0004100DC01CB01F801918380831FC0FE0106
:1042E000E75BFF4F88EC90E091838083FE01E75B02
:1042F000FF4F808191810197F1F7FE01E75BFF4F4E
:1043000091838083DE01A55BBF4FFE01E55BFF4F1C
:1043100080819181019711969C938E93FE01E55BBC
:10432000FF4F808191810097D1F627C08E01055BF8
:104330001F4FFE01E35BFF4F60817181828193819A
:104340000E944100DC01CB01F80191838083DE01F2
:10435000A95BBF4FFE01E55BFF4F808191818D938B
:104360009C93FE01E95BFF4F808191810197F1F7FA
:10437000FE01E95BFF4F9183808380E80E94C109C1
:10438000CE018A5E9E4F0E94D01080EC0E94C1092F
:10439000CE01815E9E4F0E94D010CE0185539F4F6B
:1043A0000E94CE08FE01E553FF4F8081813009F065
:1043B000B1C0FE01E953FF4F8081882309F09BC003
:1043C00081E00E94C109FE01ED5BFF4F80E090E0BB
:1043D000A0E2B1E480839183A283B3838E01015C68
:1043E0001F4FFE01ED5BFF4F6081718182819381E0
:1043F00020E030E04AEF54E40E941702DC01CB01D8
:10440000F80180839183A283B383FE01FF966081CC
:1044100071818281938120E030E040E85FE30E9477
:10442000710388232CF481E090E09EAF8DAF46C0ED
:10443000FE01FF96608171818281938120E03FEFD0
:104440004FE757E40E941103181664F5FE01ED5B77
:10445000FF4F608171818281938120E030E040E2F2
:1044600051E40E941702DC01CB01BC01CD010E9486
:104470004100DC01CB019EAF8DAF0FC088EC90E016
:104480009CAF8BAF8BAD9CAD0197F1F79CAF8BAF21
:104490008DAD9EAD01979EAF8DAF8DAD9EAD00975A
:1044A00069F716C0FE01FF96608171818281938158
:1044B0000E944100DC01CB019EAF8DAF8DAD9EAD62
:1044C0009AAF89AF89AD9AAD0197F1F79AAF89AFED
:1044D00080E80E94C109CE01875D9E4F0E94D010E6
:1044E00083EF0E94850E80EC0E94C109CE018B599A
:1044F0009E4F0E94D01082E066E041E00E94B50627
:10450000FE01E953FF4F8AE08083FE01EB53FF4F2A
:10451000108236C2FE01E553FF4F8081823009F0E0
:104520009EC0FE01E953FF4F8081882309F088C0B7
:1045300081E00E94C10980E090E0A0E2B1E48DAB8F
:104540009EABAFABB8AF6DA97EA98FA998AD20E0A7
:1045500030E04AEF54E40E941702DC01CB0189AB42
:104560009AABABABBCAB69A97AA98BA99CA920E09B
:1045700030E040E85FE30E94710388232CF481E07F
:1045800090E098AB8FA73FC069A97AA98BA99CA995
:1045900020E03FEF4FE757E40E94110318164CF557
:1045A0006DA97EA98FA998AD20E030E040E251E4EA
:1045B0000E941702DC01CB01BC01CD010E94410029
:1045C000DC01CB0198AB8FA70FC088EC90E09EA7D1
:1045D0008DA78DA59EA50197F1F79EA78DA78FA505
:1045E00098A9019798AB8FA78FA598A9009769F70D
:1045F00014C069A97AA98BA99CA90E944100DC0179
:10460000CB0198AB8FA78FA598A99CA78BA78BA54B
:104610009CA50197F1F79CA78BA780E80E94C10990
:10462000CE01875D9E4F0E94D01083EF0E94850EC1
:1046300080EC0E94C109CE0185599E4F0E94D01086
:1046400082E067E041E00E94B506FE01E953FF4FBA
:104650008AE08083FE01EB53FF4F108291C1FE017F
:10466000E553FF4F8081833009F08AC10E94041115
:1046700080E060E00E948107FE01EB53FF4F8081E4
:10468000882309F074C181E00E94C10980E090E0B4
:10469000A0E2B1E48FA398A7A9A7BAA76FA178A5B4
:1046A00089A59AA520E030E04AEF54E40E94170261
:1046B000DC01CB018BA39CA3ADA3BEA36BA17CA10A
:1046C0008DA19EA120E030E040E85FE30E947103ED
:1046D00088232CF481E090E09AA389A33FC06BA1CA
:1046E0007CA18DA19EA120E03FEF4FE757E40E94FF
:1046F000110318164CF56FA178A589A59AA520E09D
:1047000030E040E251E40E941702DC01CB01BC0121
:10471000CD010E944100DC01CB019AA389A30FC007
:1047200088EC90E098A38F8F8F8D98A10197F1F777
:1047300098A38F8F89A19AA101979AA389A389A190
:104740009AA1009769F714C06BA17CA18DA19EA1CD
:104750000E944100DC01CB019AA389A389A19AA1FF
:104760009E8F8D8F8D8D9E8D0197F1F79E8F8D8FF2
:1047700080E80E94C109CE01885C9E4F0E94D01043
:1047800080E090E0AAEFB3E4898F9A8FAB8FBC8F63
:10479000698D7A8D8B8D9C8D20E030E04AEF54E45A
:1047A0000E941702DC01CB018D8B9E8BAF8BB88FE3
:1047B0006D897E898F89988D20E030E040E85FE345
:1047C0000E94710388232CF481E090E09C8B8B8BFA
:1047D0003FC06D897E898F89988D20E03FEF4FE73C
:1047E00057E40E94110318164CF5698D7A8D8B8D54
:1047F0009C8D20E030E040E251E40E941702DC0191
:10480000CB01BC01CD010E944100DC01CB019C8B9E
:104810008B8B0FC088EC90E09A8B898B89899A8961
:104820000197F1F79A8B898B8B899C8901979C8BD7
:104830008B8B8B899C89009769F714C06D897E8961
:104840008F89988D0E944100DC01CB019C8B8B8B62
:104850008B899C89988B8F878F8598890197F1F731
:10486000988B8F8781E00E94C10980E090E0A0E2F0
:10487000B1E48B879C87AD87BE876B857C858D85F2
:104880009E8520E030E04AEF54E40E941702DC01EC
:10489000CB018F839887A987BA876F8178858985AF
:1048A0009A8520E030E040E85FE30E9471038823AE
:1048B0002CF481E090E09E838D833FC06F817885EA
:1048C00089859A8520E03FEF4FE757E40E94110366
:1048D00018164CF56B857C858D859E8520E030E033
:1048E00040E251E40E941702DC01CB01BC01CD0182
:1048F0000E944100DC01CB019E838D830FC088ECB8
:1049000090E09C838B838B819C810197F1F79C8342
:104910008B838D819E8101979E838D838D819E8166
:10492000009769F714C06F81788589859A850E9400
:104930004100DC01CB019E838D838D819E819A8312
:10494000898389819A810197F1F79A83898380E825
:104950000E94C109CE018A5E9E4F0E94D01080EC59
:104960000E94C109CE01815E9E4F0E94D010FE01BF
:10497000EB53FF4F84E18083FE01E953FF4F108228
:10498000FE01EA53FF4F8AE080830C94E51B2F92CF
:104990003F924F925F926F927F928F929F92AF92CF
:1049A000BF92CF92DF92EF92FF920F931F93CF931C
:1049B000DF93CDB7DEB7CA1BDB0B0FB6F894DEBFB3
:1049C0000FBECDBF09942A88398848885F846E84D9
:1049D0007D848C849B84AA84B984C884DF80EE8023
:1049E000FD800C811B81AA81B981CE0FD11D0FB62C
:1049F000F894DEBF0FBECDBFED010895F894FFCF50
:104A00004D6F746F722044617368626F61726400ED
:104A1000312D2053746570706572204D6F746F7204
:104A200000322D204443204D6F746F7200312D20D1
:104A30005374657070657220435700322D20537493
:104A400065707065722041435700312D204443202A
:104A5000435700322D20444320414357004D6F748B
:104A60006F72204C6F6164696E6720004D6F746FC8
:104A7000722073746F700041686D656420417A61C3
:104A800062005374657070657220435700537465FB
:104A900070706572204143570044432043570044DF
:104AA000432041435700447220417368726166009D
:104AB00000000000000000000405060700010203DA
:00000001FF
